{"abi":[{"type":"constructor","inputs":[{"name":"anEntryPoint","type":"address","internalType":"contract IEntryPoint"}],"stateMutability":"nonpayable"},{"type":"receive","stateMutability":"payable"},{"type":"function","name":"UPGRADE_INTERFACE_VERSION","inputs":[],"outputs":[{"name":"","type":"string","internalType":"string"}],"stateMutability":"view"},{"type":"function","name":"addDeposit","inputs":[],"outputs":[],"stateMutability":"payable"},{"type":"function","name":"entryPoint","inputs":[],"outputs":[{"name":"","type":"address","internalType":"contract IEntryPoint"}],"stateMutability":"view"},{"type":"function","name":"execute","inputs":[{"name":"dest","type":"address","internalType":"address"},{"name":"value","type":"uint256","internalType":"uint256"},{"name":"func","type":"bytes","internalType":"bytes"}],"outputs":[],"stateMutability":"nonpayable"},{"type":"function","name":"executeBatch","inputs":[{"name":"dest","type":"address[]","internalType":"address[]"},{"name":"func","type":"bytes[]","internalType":"bytes[]"}],"outputs":[],"stateMutability":"nonpayable"},{"type":"function","name":"getDeposit","inputs":[],"outputs":[{"name":"","type":"uint256","internalType":"uint256"}],"stateMutability":"view"},{"type":"function","name":"getNonce","inputs":[],"outputs":[{"name":"","type":"uint256","internalType":"uint256"}],"stateMutability":"view"},{"type":"function","name":"initialize","inputs":[{"name":"anOwner","type":"address","internalType":"address"}],"outputs":[],"stateMutability":"nonpayable"},{"type":"function","name":"onERC1155BatchReceived","inputs":[{"name":"","type":"address","internalType":"address"},{"name":"","type":"address","internalType":"address"},{"name":"","type":"uint256[]","internalType":"uint256[]"},{"name":"","type":"uint256[]","internalType":"uint256[]"},{"name":"","type":"bytes","internalType":"bytes"}],"outputs":[{"name":"","type":"bytes4","internalType":"bytes4"}],"stateMutability":"pure"},{"type":"function","name":"onERC1155Received","inputs":[{"name":"","type":"address","internalType":"address"},{"name":"","type":"address","internalType":"address"},{"name":"","type":"uint256","internalType":"uint256"},{"name":"","type":"uint256","internalType":"uint256"},{"name":"","type":"bytes","internalType":"bytes"}],"outputs":[{"name":"","type":"bytes4","internalType":"bytes4"}],"stateMutability":"pure"},{"type":"function","name":"onERC721Received","inputs":[{"name":"","type":"address","internalType":"address"},{"name":"","type":"address","internalType":"address"},{"name":"","type":"uint256","internalType":"uint256"},{"name":"","type":"bytes","internalType":"bytes"}],"outputs":[{"name":"","type":"bytes4","internalType":"bytes4"}],"stateMutability":"pure"},{"type":"function","name":"owner","inputs":[],"outputs":[{"name":"","type":"address","internalType":"address"}],"stateMutability":"view"},{"type":"function","name":"proxiableUUID","inputs":[],"outputs":[{"name":"","type":"bytes32","internalType":"bytes32"}],"stateMutability":"view"},{"type":"function","name":"supportsInterface","inputs":[{"name":"interfaceId","type":"bytes4","internalType":"bytes4"}],"outputs":[{"name":"","type":"bool","internalType":"bool"}],"stateMutability":"view"},{"type":"function","name":"tokensReceived","inputs":[{"name":"","type":"address","internalType":"address"},{"name":"","type":"address","internalType":"address"},{"name":"","type":"address","internalType":"address"},{"name":"","type":"uint256","internalType":"uint256"},{"name":"","type":"bytes","internalType":"bytes"},{"name":"","type":"bytes","internalType":"bytes"}],"outputs":[],"stateMutability":"pure"},{"type":"function","name":"upgradeToAndCall","inputs":[{"name":"newImplementation","type":"address","internalType":"address"},{"name":"data","type":"bytes","internalType":"bytes"}],"outputs":[],"stateMutability":"payable"},{"type":"function","name":"validateUserOp","inputs":[{"name":"userOp","type":"tuple","internalType":"struct UserOperation","components":[{"name":"sender","type":"address","internalType":"address"},{"name":"nonce","type":"uint256","internalType":"uint256"},{"name":"initCode","type":"bytes","internalType":"bytes"},{"name":"callData","type":"bytes","internalType":"bytes"},{"name":"callGasLimit","type":"uint256","internalType":"uint256"},{"name":"verificationGasLimit","type":"uint256","internalType":"uint256"},{"name":"preVerificationGas","type":"uint256","internalType":"uint256"},{"name":"maxFeePerGas","type":"uint256","internalType":"uint256"},{"name":"maxPriorityFeePerGas","type":"uint256","internalType":"uint256"},{"name":"paymasterAndData","type":"bytes","internalType":"bytes"},{"name":"signature","type":"bytes","internalType":"bytes"}]},{"name":"userOpHash","type":"bytes32","internalType":"bytes32"},{"name":"missingAccountFunds","type":"uint256","internalType":"uint256"}],"outputs":[{"name":"validationData","type":"uint256","internalType":"uint256"}],"stateMutability":"nonpayable"},{"type":"function","name":"withdrawDepositTo","inputs":[{"name":"withdrawAddress","type":"address","internalType":"address payable"},{"name":"amount","type":"uint256","internalType":"uint256"}],"outputs":[],"stateMutability":"nonpayable"},{"type":"event","name":"Initialized","inputs":[{"name":"version","type":"uint64","indexed":false,"internalType":"uint64"}],"anonymous":false},{"type":"event","name":"SimpleAccountInitialized","inputs":[{"name":"entryPoint","type":"address","indexed":true,"internalType":"contract IEntryPoint"},{"name":"owner","type":"address","indexed":true,"internalType":"address"}],"anonymous":false},{"type":"event","name":"Upgraded","inputs":[{"name":"implementation","type":"address","indexed":true,"internalType":"address"}],"anonymous":false},{"type":"error","name":"AddressEmptyCode","inputs":[{"name":"target","type":"address","internalType":"address"}]},{"type":"error","name":"ECDSAInvalidSignature","inputs":[]},{"type":"error","name":"ECDSAInvalidSignatureLength","inputs":[{"name":"length","type":"uint256","internalType":"uint256"}]},{"type":"error","name":"ECDSAInvalidSignatureS","inputs":[{"name":"s","type":"bytes32","internalType":"bytes32"}]},{"type":"error","name":"ERC1967InvalidImplementation","inputs":[{"name":"implementation","type":"address","internalType":"address"}]},{"type":"error","name":"ERC1967NonPayable","inputs":[]},{"type":"error","name":"FailedInnerCall","inputs":[]},{"type":"error","name":"InvalidInitialization","inputs":[]},{"type":"error","name":"NotInitializing","inputs":[]},{"type":"error","name":"UUPSUnauthorizedCallContext","inputs":[]},{"type":"error","name":"UUPSUnsupportedProxiableUUID","inputs":[{"name":"slot","type":"bytes32","internalType":"bytes32"}]}],"bytecode":{"object":"0x60c06040523060805234801561001457600080fd5b5060405161199538038061199583398101604081905261003391610100565b6001600160a01b03811660a05261004861004e565b50610130565b7ff0c57e16840df040f15088dc2f81fe391c3923bec73e23a9662efc9c229c6a00805468010000000000000000900460ff161561009e5760405163f92ee8a960e01b815260040160405180910390fd5b80546001600160401b03908116146100fd5780546001600160401b0319166001600160401b0390811782556040519081527fc7f505b2f371ae2175ee4913f4499e1f2633a7b5936321eed1cdaeb6115181d29060200160405180910390a15b50565b60006020828403121561011257600080fd5b81516001600160a01b038116811461012957600080fd5b9392505050565b60805160a051611801610194600039600081816102dc01528181610536015281816105b7015281816106e90152818161088e015281816108c8015281816109c70152610d5b015260008181610b8901528181610bb20152610cf801526118016000f3fe60806040526004361061010c5760003560e01c80638da5cb5b11610095578063bc197c8111610064578063bc197c8114610320578063c399ec881461034f578063c4d66de814610364578063d087d28814610384578063f23a6e611461039957600080fd5b80638da5cb5b14610257578063ad3cb1cc1461028f578063b0d691fe146102cd578063b61d27f61461030057600080fd5b80633a871cdd116100dc5780633a871cdd146101d95780634a58db19146102075780634d44560d1461020f5780634f1ef2861461022f57806352d1902d1461024257600080fd5b806223de291461011857806301ffc9a71461013f578063150b7a021461017457806318dfb3c7146101b957600080fd5b3661011357005b600080fd5b34801561012457600080fd5b5061013d6101333660046111d6565b5050505050505050565b005b34801561014b57600080fd5b5061015f61015a366004611286565b6103c6565b60405190151581526020015b60405180910390f35b34801561018057600080fd5b506101a061018f3660046112b0565b630a85bd0160e11b95945050505050565b6040516001600160e01b0319909116815260200161016b565b3480156101c557600080fd5b5061013d6101d4366004611366565b610418565b3480156101e557600080fd5b506101f96101f43660046113d1565b61050e565b60405190815260200161016b565b61013d610534565b34801561021b57600080fd5b5061013d61022a366004611424565b6105ad565b61013d61023d366004611466565b61063e565b34801561024e57600080fd5b506101f961065d565b34801561026357600080fd5b50600054610277906001600160a01b031681565b6040516001600160a01b03909116815260200161016b565b34801561029b57600080fd5b506102c0604051806040016040528060058152602001640352e302e360dc1b81525081565b60405161016b919061154d565b3480156102d957600080fd5b507f0000000000000000000000000000000000000000000000000000000000000000610277565b34801561030c57600080fd5b5061013d61031b366004611580565b61067a565b34801561032c57600080fd5b506101a061033b3660046115cf565b63bc197c8160e01b98975050505050505050565b34801561035b57600080fd5b506101f96106c9565b34801561037057600080fd5b5061013d61037f36600461166c565b61075a565b34801561039057600080fd5b506101f9610867565b3480156103a557600080fd5b506101a06103b4366004611689565b63f23a6e6160e01b9695505050505050565b60006001600160e01b03198216630a85bd0160e11b14806103f757506001600160e01b03198216630271189760e51b145b8061041257506001600160e01b031982166301ffc9a760e01b145b92915050565b6104206108bd565b82811461046a5760405162461bcd60e51b815260206004820152601360248201527277726f6e67206172726179206c656e6774687360681b60448201526064015b60405180910390fd5b60005b83811015610507576104ff85858381811061048a5761048a611704565b905060200201602081019061049f919061166c565b60008585858181106104b3576104b3611704565b90506020028101906104c5919061171a565b8080601f01602080910402602001604051908101604052809392919081815260200183838082843760009201919091525061094c92505050565b60010161046d565b5050505050565b60006105186109bc565b6105228484610a34565b905061052d82610ae0565b9392505050565b7f000000000000000000000000000000000000000000000000000000000000000060405163b760faf960e01b81523060048201526001600160a01b03919091169063b760faf99034906024016000604051808303818588803b15801561059957600080fd5b505af1158015610507573d6000803e3d6000fd5b6105b5610b2d565b7f000000000000000000000000000000000000000000000000000000000000000060405163040b850f60e31b81526001600160a01b03848116600483015260248201849052919091169063205c287890604401600060405180830381600087803b15801561062257600080fd5b505af1158015610636573d6000803e3d6000fd5b505050505050565b610646610b7e565b61064f82610c23565b6106598282610c2b565b5050565b6000610667610ced565b506000805160206117ac83398151915290565b6106826108bd565b6106c3848484848080601f01602080910402602001604051908101604052809392919081815260200183838082843760009201919091525061094c92505050565b50505050565b6040516370a0823160e01b81523060048201526000906001600160a01b037f000000000000000000000000000000000000000000000000000000000000000016906370a08231906024015b602060405180830381865afa158015610731573d6000803e3d6000fd5b505050506040513d601f19601f820116820180604052508101906107559190611760565b905090565b7ff0c57e16840df040f15088dc2f81fe391c3923bec73e23a9662efc9c229c6a008054600160401b810460ff1615906001600160401b031660008115801561079f5750825b90506000826001600160401b031660011480156107bb5750303b155b9050811580156107c9575080155b156107e75760405163f92ee8a960e01b815260040160405180910390fd5b845467ffffffffffffffff19166001178555831561081157845460ff60401b1916600160401b1785555b61081a86610d36565b831561063657845460ff60401b19168555604051600181527fc7f505b2f371ae2175ee4913f4499e1f2633a7b5936321eed1cdaeb6115181d29060200160405180910390a1505050505050565b604051631aab3f0d60e11b8152306004820152600060248201819052906001600160a01b037f000000000000000000000000000000000000000000000000000000000000000016906335567e1a90604401610714565b336001600160a01b037f00000000000000000000000000000000000000000000000000000000000000001614806108fe57506000546001600160a01b031633145b61094a5760405162461bcd60e51b815260206004820181905260248201527f6163636f756e743a206e6f74204f776e6572206f7220456e747279506f696e746044820152606401610461565b565b600080846001600160a01b031684846040516109689190611779565b60006040518083038185875af1925050503d80600081146109a5576040519150601f19603f3d011682016040523d82523d6000602084013e6109aa565b606091505b50915091508161050757805160208201fd5b336001600160a01b037f0000000000000000000000000000000000000000000000000000000000000000161461094a5760405162461bcd60e51b815260206004820152601c60248201527f6163636f756e743a206e6f742066726f6d20456e747279506f696e74000000006044820152606401610461565b7f19457468657265756d205369676e6564204d6573736167653a0a3332000000006000908152601c829052603c81208190610ab190610a7761014087018761171a565b8080601f016020809104026020016040519081016040528093929190818152602001838380828437600092019190915250610da592505050565b6000549091506001600160a01b03808316911614610ad3576001915050610412565b5060009392505050565b50565b8015610add57604051600090339060001990849084818181858888f193505050503d8060008114610507576040519150601f19603f3d011682016040523d82523d6000602084013e610507565b6000546001600160a01b0316331480610b4557503330145b61094a5760405162461bcd60e51b815260206004820152600a60248201526937b7363c9037bbb732b960b11b6044820152606401610461565b306001600160a01b037f0000000000000000000000000000000000000000000000000000000000000000161480610c0557507f00000000000000000000000000000000000000000000000000000000000000006001600160a01b0316610bf96000805160206117ac833981519152546001600160a01b031690565b6001600160a01b031614155b1561094a5760405163703e46dd60e11b815260040160405180910390fd5b610add610b2d565b816001600160a01b03166352d1902d6040518163ffffffff1660e01b8152600401602060405180830381865afa925050508015610c85575060408051601f3d908101601f19168201909252610c8291810190611760565b60015b610cad57604051634c9c8ce360e01b81526001600160a01b0383166004820152602401610461565b6000805160206117ac8339815191528114610cde57604051632a87526960e21b815260048101829052602401610461565b610ce88383610dcf565b505050565b306001600160a01b037f0000000000000000000000000000000000000000000000000000000000000000161461094a5760405163703e46dd60e11b815260040160405180910390fd5b600080546001600160a01b0319166001600160a01b03838116918217835560405191927f0000000000000000000000000000000000000000000000000000000000000000909116917f47e55c76e7a6f1fd8996a1da8008c1ea29699cca35e7bcd057f2dec313b6e5de9190a350565b600080600080610db58686610e25565b925092509250610dc58282610e72565b5090949350505050565b610dd882610f2b565b6040516001600160a01b038316907fbc7cd75a20ee27fd9adebab32041f755214dbc6bffa90cc0225b39da2e5c2d3b90600090a2805115610e1d57610ce88282610f90565b610659611006565b60008060008351604103610e5f5760208401516040850151606086015160001a610e5188828585611025565b955095509550505050610e6b565b50508151600091506002905b9250925092565b6000826003811115610e8657610e86611795565b03610e8f575050565b6001826003811115610ea357610ea3611795565b03610ec15760405163f645eedf60e01b815260040160405180910390fd5b6002826003811115610ed557610ed5611795565b03610ef65760405163fce698f760e01b815260048101829052602401610461565b6003826003811115610f0a57610f0a611795565b03610659576040516335e2f38360e21b815260048101829052602401610461565b806001600160a01b03163b600003610f6157604051634c9c8ce360e01b81526001600160a01b0382166004820152602401610461565b6000805160206117ac83398151915280546001600160a01b0319166001600160a01b0392909216919091179055565b6060600080846001600160a01b031684604051610fad9190611779565b600060405180830381855af49150503d8060008114610fe8576040519150601f19603f3d011682016040523d82523d6000602084013e610fed565b606091505b5091509150610ffd8583836110f4565b95945050505050565b341561094a5760405163b398979f60e01b815260040160405180910390fd5b600080807f7fffffffffffffffffffffffffffffff5d576e7357a4501ddfe92f46681b20a084111561106057506000915060039050826110ea565b604080516000808252602082018084528a905260ff891692820192909252606081018790526080810186905260019060a0016020604051602081039080840390855afa1580156110b4573d6000803e3d6000fd5b5050604051601f1901519150506001600160a01b0381166110e0575060009250600191508290506110ea565b9250600091508190505b9450945094915050565b6060826111095761110482611150565b61052d565b815115801561112057506001600160a01b0384163b155b1561114957604051639996b31560e01b81526001600160a01b0385166004820152602401610461565b508061052d565b8051156111605780518082602001fd5b604051630a12f52160e11b815260040160405180910390fd5b6001600160a01b0381168114610add57600080fd5b60008083601f8401126111a057600080fd5b5081356001600160401b038111156111b757600080fd5b6020830191508360208285010111156111cf57600080fd5b9250929050565b60008060008060008060008060c0898b0312156111f257600080fd5b88356111fd81611179565b9750602089013561120d81611179565b9650604089013561121d81611179565b95506060890135945060808901356001600160401b038082111561124057600080fd5b61124c8c838d0161118e565b909650945060a08b013591508082111561126557600080fd5b506112728b828c0161118e565b999c989b5096995094979396929594505050565b60006020828403121561129857600080fd5b81356001600160e01b03198116811461052d57600080fd5b6000806000806000608086880312156112c857600080fd5b85356112d381611179565b945060208601356112e381611179565b93506040860135925060608601356001600160401b0381111561130557600080fd5b6113118882890161118e565b969995985093965092949392505050565b60008083601f84011261133457600080fd5b5081356001600160401b0381111561134b57600080fd5b6020830191508360208260051b85010111156111cf57600080fd5b6000806000806040858703121561137c57600080fd5b84356001600160401b038082111561139357600080fd5b61139f88838901611322565b909650945060208701359150808211156113b857600080fd5b506113c587828801611322565b95989497509550505050565b6000806000606084860312156113e657600080fd5b83356001600160401b038111156113fc57600080fd5b8401610160818703121561140f57600080fd5b95602085013595506040909401359392505050565b6000806040838503121561143757600080fd5b823561144281611179565b946020939093013593505050565b634e487b7160e01b600052604160045260246000fd5b6000806040838503121561147957600080fd5b823561148481611179565b915060208301356001600160401b03808211156114a057600080fd5b818501915085601f8301126114b457600080fd5b8135818111156114c6576114c6611450565b604051601f8201601f19908116603f011681019083821181831017156114ee576114ee611450565b8160405282815288602084870101111561150757600080fd5b8260208601602083013760006020848301015280955050505050509250929050565b60005b8381101561154457818101518382015260200161152c565b50506000910152565b602081526000825180602084015261156c816040850160208701611529565b601f01601f19169190910160400192915050565b6000806000806060858703121561159657600080fd5b84356115a181611179565b93506020850135925060408501356001600160401b038111156115c357600080fd5b6113c58782880161118e565b60008060008060008060008060a0898b0312156115eb57600080fd5b88356115f681611179565b9750602089013561160681611179565b965060408901356001600160401b038082111561162257600080fd5b61162e8c838d01611322565b909850965060608b013591508082111561164757600080fd5b6116538c838d01611322565b909650945060808b013591508082111561126557600080fd5b60006020828403121561167e57600080fd5b813561052d81611179565b60008060008060008060a087890312156116a257600080fd5b86356116ad81611179565b955060208701356116bd81611179565b9450604087013593506060870135925060808701356001600160401b038111156116e657600080fd5b6116f289828a0161118e565b979a9699509497509295939492505050565b634e487b7160e01b600052603260045260246000fd5b6000808335601e1984360301811261173157600080fd5b8301803591506001600160401b0382111561174b57600080fd5b6020019150368190038213156111cf57600080fd5b60006020828403121561177257600080fd5b5051919050565b6000825161178b818460208701611529565b9190910192915050565b634e487b7160e01b600052602160045260246000fdfe360894a13ba1a3210667c828492db98dca3e2076cc3735a920a3ca505d382bbca26469706673582212207187e6ab84b4fb44127ca6911095b898d9e3d0704f0912487ce47de3d3a853aa64736f6c63430008190033","linkReferences":{}},"methodIdentifiers":{"UPGRADE_INTERFACE_VERSION()":"ad3cb1cc","addDeposit()":"4a58db19","entryPoint()":"b0d691fe","execute(address,uint256,bytes)":"b61d27f6","executeBatch(address[],bytes[])":"18dfb3c7","getDeposit()":"c399ec88","getNonce()":"d087d288","initialize(address)":"c4d66de8","onERC1155BatchReceived(address,address,uint256[],uint256[],bytes)":"bc197c81","onERC1155Received(address,address,uint256,uint256,bytes)":"f23a6e61","onERC721Received(address,address,uint256,bytes)":"150b7a02","owner()":"8da5cb5b","proxiableUUID()":"52d1902d","supportsInterface(bytes4)":"01ffc9a7","tokensReceived(address,address,address,uint256,bytes,bytes)":"0023de29","upgradeToAndCall(address,bytes)":"4f1ef286","validateUserOp((address,uint256,bytes,bytes,uint256,uint256,uint256,uint256,uint256,bytes,bytes),bytes32,uint256)":"3a871cdd","withdrawDepositTo(address,uint256)":"4d44560d"},"id":47}