{"abi":[{"type":"constructor","inputs":[{"name":"_newEntryPoint","type":"address","internalType":"contract IEntryPoint"}],"stateMutability":"nonpayable"},{"type":"receive","stateMutability":"payable"},{"type":"function","name":"UPGRADE_INTERFACE_VERSION","inputs":[],"outputs":[{"name":"","type":"string","internalType":"string"}],"stateMutability":"view"},{"type":"function","name":"_entryPoint","inputs":[],"outputs":[{"name":"","type":"address","internalType":"contract IEntryPoint"}],"stateMutability":"view"},{"type":"function","name":"addDeposit","inputs":[],"outputs":[],"stateMutability":"payable"},{"type":"function","name":"entryPoint","inputs":[],"outputs":[{"name":"","type":"address","internalType":"contract IEntryPoint"}],"stateMutability":"view"},{"type":"function","name":"execute","inputs":[{"name":"dest","type":"address","internalType":"address"},{"name":"value","type":"uint256","internalType":"uint256"},{"name":"func","type":"bytes","internalType":"bytes"}],"outputs":[],"stateMutability":"nonpayable"},{"type":"function","name":"executeBatch","inputs":[{"name":"dest","type":"address[]","internalType":"address[]"},{"name":"func","type":"bytes[]","internalType":"bytes[]"}],"outputs":[],"stateMutability":"nonpayable"},{"type":"function","name":"getDeposit","inputs":[],"outputs":[{"name":"","type":"uint256","internalType":"uint256"}],"stateMutability":"view"},{"type":"function","name":"getNonce","inputs":[],"outputs":[{"name":"","type":"uint256","internalType":"uint256"}],"stateMutability":"view"},{"type":"function","name":"inherit","inputs":[],"outputs":[],"stateMutability":"nonpayable"},{"type":"function","name":"initialize","inputs":[{"name":"_newEntryPoint","type":"address","internalType":"contract IEntryPoint"},{"name":"_publicKey","type":"bytes","internalType":"bytes"},{"name":"_snarkVerifier","type":"address","internalType":"address"}],"outputs":[],"stateMutability":"nonpayable"},{"type":"function","name":"initialize","inputs":[{"name":"anOwner","type":"address","internalType":"address"}],"outputs":[],"stateMutability":"nonpayable"},{"type":"function","name":"onERC1155BatchReceived","inputs":[{"name":"","type":"address","internalType":"address"},{"name":"","type":"address","internalType":"address"},{"name":"","type":"uint256[]","internalType":"uint256[]"},{"name":"","type":"uint256[]","internalType":"uint256[]"},{"name":"","type":"bytes","internalType":"bytes"}],"outputs":[{"name":"","type":"bytes4","internalType":"bytes4"}],"stateMutability":"pure"},{"type":"function","name":"onERC1155Received","inputs":[{"name":"","type":"address","internalType":"address"},{"name":"","type":"address","internalType":"address"},{"name":"","type":"uint256","internalType":"uint256"},{"name":"","type":"uint256","internalType":"uint256"},{"name":"","type":"bytes","internalType":"bytes"}],"outputs":[{"name":"","type":"bytes4","internalType":"bytes4"}],"stateMutability":"pure"},{"type":"function","name":"onERC721Received","inputs":[{"name":"","type":"address","internalType":"address"},{"name":"","type":"address","internalType":"address"},{"name":"","type":"uint256","internalType":"uint256"},{"name":"","type":"bytes","internalType":"bytes"}],"outputs":[{"name":"","type":"bytes4","internalType":"bytes4"}],"stateMutability":"pure"},{"type":"function","name":"owner","inputs":[],"outputs":[{"name":"","type":"address","internalType":"address"}],"stateMutability":"view"},{"type":"function","name":"proxiableUUID","inputs":[],"outputs":[{"name":"","type":"bytes32","internalType":"bytes32"}],"stateMutability":"view"},{"type":"function","name":"publicKey","inputs":[],"outputs":[{"name":"","type":"bytes","internalType":"bytes"}],"stateMutability":"view"},{"type":"function","name":"setInactiveTimeLimit","inputs":[{"name":"_InactiveTimeLimit","type":"uint256","internalType":"uint256"}],"outputs":[],"stateMutability":"nonpayable"},{"type":"function","name":"setInheritor","inputs":[{"name":"_inheritor","type":"address","internalType":"address"}],"outputs":[],"stateMutability":"nonpayable"},{"type":"function","name":"setPublicKey","inputs":[{"name":"_publicKey","type":"bytes","internalType":"bytes"}],"outputs":[],"stateMutability":"nonpayable"},{"type":"function","name":"snarkVerifier","inputs":[],"outputs":[{"name":"","type":"address","internalType":"address"}],"stateMutability":"view"},{"type":"function","name":"supportsInterface","inputs":[{"name":"interfaceId","type":"bytes4","internalType":"bytes4"}],"outputs":[{"name":"","type":"bool","internalType":"bool"}],"stateMutability":"view"},{"type":"function","name":"tokensReceived","inputs":[{"name":"","type":"address","internalType":"address"},{"name":"","type":"address","internalType":"address"},{"name":"","type":"address","internalType":"address"},{"name":"","type":"uint256","internalType":"uint256"},{"name":"","type":"bytes","internalType":"bytes"},{"name":"","type":"bytes","internalType":"bytes"}],"outputs":[],"stateMutability":"pure"},{"type":"function","name":"upgradeToAndCall","inputs":[{"name":"newImplementation","type":"address","internalType":"address"},{"name":"data","type":"bytes","internalType":"bytes"}],"outputs":[],"stateMutability":"payable"},{"type":"function","name":"validateUserOp","inputs":[{"name":"userOp","type":"tuple","internalType":"struct UserOperation","components":[{"name":"sender","type":"address","internalType":"address"},{"name":"nonce","type":"uint256","internalType":"uint256"},{"name":"initCode","type":"bytes","internalType":"bytes"},{"name":"callData","type":"bytes","internalType":"bytes"},{"name":"callGasLimit","type":"uint256","internalType":"uint256"},{"name":"verificationGasLimit","type":"uint256","internalType":"uint256"},{"name":"preVerificationGas","type":"uint256","internalType":"uint256"},{"name":"maxFeePerGas","type":"uint256","internalType":"uint256"},{"name":"maxPriorityFeePerGas","type":"uint256","internalType":"uint256"},{"name":"paymasterAndData","type":"bytes","internalType":"bytes"},{"name":"signature","type":"bytes","internalType":"bytes"}]},{"name":"userOpHash","type":"bytes32","internalType":"bytes32"},{"name":"missingAccountFunds","type":"uint256","internalType":"uint256"}],"outputs":[{"name":"validationData","type":"uint256","internalType":"uint256"}],"stateMutability":"nonpayable"},{"type":"function","name":"verifier","inputs":[],"outputs":[{"name":"","type":"address","internalType":"address"}],"stateMutability":"view"},{"type":"function","name":"withdrawDepositTo","inputs":[{"name":"withdrawAddress","type":"address","internalType":"address payable"},{"name":"amount","type":"uint256","internalType":"uint256"}],"outputs":[],"stateMutability":"nonpayable"},{"type":"event","name":"Initialized","inputs":[{"name":"version","type":"uint64","indexed":false,"internalType":"uint64"}],"anonymous":false},{"type":"event","name":"SimpleAccountInitialized","inputs":[{"name":"entryPoint","type":"address","indexed":true,"internalType":"contract IEntryPoint"},{"name":"owner","type":"address","indexed":true,"internalType":"address"}],"anonymous":false},{"type":"event","name":"Upgraded","inputs":[{"name":"implementation","type":"address","indexed":true,"internalType":"address"}],"anonymous":false},{"type":"error","name":"AddressEmptyCode","inputs":[{"name":"target","type":"address","internalType":"address"}]},{"type":"error","name":"ERC1967InvalidImplementation","inputs":[{"name":"implementation","type":"address","internalType":"address"}]},{"type":"error","name":"ERC1967NonPayable","inputs":[]},{"type":"error","name":"FailedInnerCall","inputs":[]},{"type":"error","name":"InvalidInitialization","inputs":[]},{"type":"error","name":"NotInitializing","inputs":[]},{"type":"error","name":"UUPSUnauthorizedCallContext","inputs":[]},{"type":"error","name":"UUPSUnsupportedProxiableUUID","inputs":[{"name":"slot","type":"bytes32","internalType":"bytes32"}]}],"bytecode":{"object":"0x60c06040523060805234801561001457600080fd5b50604051611e55380380611e5583398101604081905261003391610102565b6001600160a01b03811660a05280610049610050565b5050610132565b7ff0c57e16840df040f15088dc2f81fe391c3923bec73e23a9662efc9c229c6a00805468010000000000000000900460ff16156100a05760405163f92ee8a960e01b815260040160405180910390fd5b80546001600160401b03908116146100ff5780546001600160401b0319166001600160401b0390811782556040519081527fc7f505b2f371ae2175ee4913f4499e1f2633a7b5936321eed1cdaeb6115181d29060200160405180910390a15b50565b60006020828403121561011457600080fd5b81516001600160a01b038116811461012b57600080fd5b9392505050565b60805160a051611cf0610165600039600061114d015260008181610f8001528181610fa901526110ea0152611cf06000f3fe60806040526004361061019f5760003560e01c80637a2a660b116100ec578063b3080c241161008a578063c399ec8811610064578063c399ec88146104d7578063c4d66de8146104ec578063d087d2881461050c578063f23a6e611461052157600080fd5b8063b3080c2414610468578063b61d27f614610488578063bc197c81146104a857600080fd5b8063a91d58b4116100c6578063a91d58b4146103d9578063abf90f7b146103f9578063ad3cb1cc14610419578063b0d691fe1461044a57600080fd5b80637a2a660b146103795780638c2ebc7c146103995780638da5cb5b146103b957600080fd5b80632b7ac3f3116101595780634d44560d116101335780634d44560d1461030f5780634f1ef2861461032f57806352d1902d1461034257806363ffab311461035757600080fd5b80632b7ac3f3146102a15780633a871cdd146102d95780634a58db191461030757600080fd5b806223de29146101ab57806301ffc9a7146101d257806312b2225614610207578063150b7a021461022757806318dfb3c71461026c5780632b445d781461028c57600080fd5b366101a657005b600080fd5b3480156101b757600080fd5b506101d06101c63660046113c9565b5050505050505050565b005b3480156101de57600080fd5b506101f26101ed366004611479565b61054e565b60405190151581526020015b60405180910390f35b34801561021357600080fd5b506101d06102223660046114a3565b6105a0565b34801561023357600080fd5b506102536102423660046114c0565b630a85bd0160e11b95945050505050565b6040516001600160e01b031990911681526020016101fe565b34801561027857600080fd5b506101d0610287366004611576565b6105ca565b34801561029857600080fd5b506101d06106c0565b3480156102ad57600080fd5b506001546102c1906001600160a01b031681565b6040516001600160a01b0390911681526020016101fe565b3480156102e557600080fd5b506102f96102f43660046115e1565b610792565b6040519081526020016101fe565b6101d06107b8565b34801561031b57600080fd5b506101d061032a366004611634565b61081c565b6101d061033d366004611702565b610898565b34801561034e57600080fd5b506102f96108b7565b34801561036357600080fd5b5061036c6108d4565b6040516101fe91906117a1565b34801561038557600080fd5b506004546102c1906001600160a01b031681565b3480156103a557600080fd5b506101d06103b43660046117b4565b610962565b3480156103c557600080fd5b506000546102c1906001600160a01b031681565b3480156103e557600080fd5b506101d06103f43660046117cd565b61096f565b34801561040557600080fd5b506101d061041436600461180e565b610989565b34801561042557600080fd5b5061036c604051806040016040528060058152602001640352e302e360dc1b81525081565b34801561045657600080fd5b506002546001600160a01b03166102c1565b34801561047457600080fd5b506002546102c1906001600160a01b031681565b34801561049457600080fd5b506101d06104a3366004611871565b610ae7565b3480156104b457600080fd5b506102536104c33660046118c0565b63bc197c8160e01b98975050505050505050565b3480156104e357600080fd5b506102f9610b36565b3480156104f857600080fd5b506101d06105073660046114a3565b610bba565b34801561051857600080fd5b506102f9610cc7565b34801561052d57600080fd5b5061025361053c36600461195d565b63f23a6e6160e01b9695505050505050565b60006001600160e01b03198216630a85bd0160e11b148061057f57506001600160e01b03198216630271189760e51b145b8061059a57506001600160e01b031982166301ffc9a760e01b145b92915050565b6105a8610d10565b600680546001600160a01b0319166001600160a01b0392909216919091179055565b6105d2610d6c565b82811461061c5760405162461bcd60e51b815260206004820152601360248201527277726f6e67206172726179206c656e6774687360681b60448201526064015b60405180910390fd5b60005b838110156106b9576106b185858381811061063c5761063c6119d8565b905060200201602081019061065191906114a3565b6000858585818110610665576106656119d8565b905060200281019061067791906119ee565b8080601f016020809104026020016040519081016040528093929190818152602001838380828437600092019190915250610ddb92505050565b60010161061f565b5050505050565b6006546001600160a01b0316331461070a5760405162461bcd60e51b815260206004820152600d60248201526c3737ba1034b73432b934ba37b960991b6044820152606401610613565b60055460075461071a9042611a34565b116107565760405162461bcd60e51b815260206004820152600c60248201526b6e6f7420696e61637469766560a01b6044820152606401610613565b6006546040516001600160a01b03909116904780156108fc02916000818181858888f1935050505015801561078f573d6000803e3d6000fd5b50565b600061079c610d10565b6107a68484610e4b565b90506107b182610ed7565b9392505050565b6002546001600160a01b031660405163b760faf960e01b81523060048201526001600160a01b03919091169063b760faf99034906024016000604051808303818588803b15801561080857600080fd5b505af11580156106b9573d6000803e3d6000fd5b610824610f24565b6002546001600160a01b031660405163040b850f60e31b81526001600160a01b03848116600483015260248201849052919091169063205c287890604401600060405180830381600087803b15801561087c57600080fd5b505af1158015610890573d6000803e3d6000fd5b505050505050565b6108a0610f75565b6108a98261101a565b6108b38282611022565b5050565b60006108c16110df565b50600080516020611c9b83398151915290565b600380546108e190611a55565b80601f016020809104026020016040519081016040528092919081815260200182805461090d90611a55565b801561095a5780601f1061092f5761010080835404028352916020019161095a565b820191906000526020600020905b81548152906001019060200180831161093d57829003601f168201915b505050505081565b61096a610d10565b600555565b610977610d10565b6003610984828483611ad7565b505050565b7ff0c57e16840df040f15088dc2f81fe391c3923bec73e23a9662efc9c229c6a008054600160401b810460ff1615906001600160401b03166000811580156109ce5750825b90506000826001600160401b031660011480156109ea5750303b155b9050811580156109f8575080155b15610a165760405163f92ee8a960e01b815260040160405180910390fd5b845467ffffffffffffffff191660011785558315610a4057845460ff60401b1916600160401b1785555b600280546001600160a01b0319166001600160a01b038a161790556003610a678882611b96565b50600480546001600160a01b0388166001600160a01b03199182161790915560006005556006805490911690554260075583156101c657845460ff60401b19168555604051600181527fc7f505b2f371ae2175ee4913f4499e1f2633a7b5936321eed1cdaeb6115181d29060200160405180910390a15050505050505050565b610aef610d6c565b610b30848484848080601f016020809104026020016040519081016040528093929190818152602001838380828437600092019190915250610ddb92505050565b50505050565b6000610b4a6002546001600160a01b031690565b6040516370a0823160e01b81523060048201526001600160a01b0391909116906370a08231906024015b602060405180830381865afa158015610b91573d6000803e3d6000fd5b505050506040513d601f19601f82011682018060405250810190610bb59190611c55565b905090565b7ff0c57e16840df040f15088dc2f81fe391c3923bec73e23a9662efc9c229c6a008054600160401b810460ff1615906001600160401b0316600081158015610bff5750825b90506000826001600160401b03166001148015610c1b5750303b155b905081158015610c29575080155b15610c475760405163f92ee8a960e01b815260040160405180910390fd5b845467ffffffffffffffff191660011785558315610c7157845460ff60401b1916600160401b1785555b610c7a86611128565b831561089057845460ff60401b19168555604051600181527fc7f505b2f371ae2175ee4913f4499e1f2633a7b5936321eed1cdaeb6115181d29060200160405180910390a1505050505050565b6000610cdb6002546001600160a01b031690565b604051631aab3f0d60e11b8152306004820152600060248201526001600160a01b0391909116906335567e1a90604401610b74565b6002546001600160a01b03163314610d6a5760405162461bcd60e51b815260206004820152601c60248201527f6163636f756e743a206e6f742066726f6d20456e747279506f696e74000000006044820152606401610613565b565b6002546001600160a01b0316331480610d8f57506000546001600160a01b031633145b610d6a5760405162461bcd60e51b815260206004820181905260248201527f6163636f756e743a206e6f74204f776e6572206f7220456e747279506f696e746044820152606401610613565b600080846001600160a01b03168484604051610df79190611c6e565b60006040518083038185875af1925050503d8060008114610e34576040519150601f19603f3d011682016040523d82523d6000602084013e610e39565b606091505b5091509150816106b957805160208201fd5b60045460009081906001600160a01b0316610e6a6101408601866119ee565b604051610e78929190611c8a565b6000604051808303816000865af19150503d8060008114610eb5576040519150601f19603f3d011682016040523d82523d6000602084013e610eba565b606091505b5050905080610ecd57600191505061059a565b5060009392505050565b801561078f57604051600090339060001990849084818181858888f193505050503d80600081146106b9576040519150601f19603f3d011682016040523d82523d6000602084013e6106b9565b6000546001600160a01b0316331480610f3c57503330145b610d6a5760405162461bcd60e51b815260206004820152600a60248201526937b7363c9037bbb732b960b11b6044820152606401610613565b306001600160a01b037f0000000000000000000000000000000000000000000000000000000000000000161480610ffc57507f00000000000000000000000000000000000000000000000000000000000000006001600160a01b0316610ff0600080516020611c9b833981519152546001600160a01b031690565b6001600160a01b031614155b15610d6a5760405163703e46dd60e11b815260040160405180910390fd5b61078f610f24565b816001600160a01b03166352d1902d6040518163ffffffff1660e01b8152600401602060405180830381865afa92505050801561107c575060408051601f3d908101601f1916820190925261107991810190611c55565b60015b6110a457604051634c9c8ce360e01b81526001600160a01b0383166004820152602401610613565b600080516020611c9b83398151915281146110d557604051632a87526960e21b815260048101829052602401610613565b6109848383611197565b306001600160a01b037f00000000000000000000000000000000000000000000000000000000000000001614610d6a5760405163703e46dd60e11b815260040160405180910390fd5b600080546001600160a01b0319166001600160a01b03838116918217835560405191927f0000000000000000000000000000000000000000000000000000000000000000909116917f47e55c76e7a6f1fd8996a1da8008c1ea29699cca35e7bcd057f2dec313b6e5de9190a350565b6111a0826111ed565b6040516001600160a01b038316907fbc7cd75a20ee27fd9adebab32041f755214dbc6bffa90cc0225b39da2e5c2d3b90600090a28051156111e5576109848282611252565b6108b36112c8565b806001600160a01b03163b60000361122357604051634c9c8ce360e01b81526001600160a01b0382166004820152602401610613565b600080516020611c9b83398151915280546001600160a01b0319166001600160a01b0392909216919091179055565b6060600080846001600160a01b03168460405161126f9190611c6e565b600060405180830381855af49150503d80600081146112aa576040519150601f19603f3d011682016040523d82523d6000602084013e6112af565b606091505b50915091506112bf8583836112e7565b95945050505050565b3415610d6a5760405163b398979f60e01b815260040160405180910390fd5b6060826112fc576112f782611343565b6107b1565b815115801561131357506001600160a01b0384163b155b1561133c57604051639996b31560e01b81526001600160a01b0385166004820152602401610613565b50806107b1565b8051156113535780518082602001fd5b604051630a12f52160e11b815260040160405180910390fd5b6001600160a01b038116811461078f57600080fd5b60008083601f84011261139357600080fd5b5081356001600160401b038111156113aa57600080fd5b6020830191508360208285010111156113c257600080fd5b9250929050565b60008060008060008060008060c0898b0312156113e557600080fd5b88356113f08161136c565b975060208901356114008161136c565b965060408901356114108161136c565b95506060890135945060808901356001600160401b038082111561143357600080fd5b61143f8c838d01611381565b909650945060a08b013591508082111561145857600080fd5b506114658b828c01611381565b999c989b5096995094979396929594505050565b60006020828403121561148b57600080fd5b81356001600160e01b0319811681146107b157600080fd5b6000602082840312156114b557600080fd5b81356107b18161136c565b6000806000806000608086880312156114d857600080fd5b85356114e38161136c565b945060208601356114f38161136c565b93506040860135925060608601356001600160401b0381111561151557600080fd5b61152188828901611381565b969995985093965092949392505050565b60008083601f84011261154457600080fd5b5081356001600160401b0381111561155b57600080fd5b6020830191508360208260051b85010111156113c257600080fd5b6000806000806040858703121561158c57600080fd5b84356001600160401b03808211156115a357600080fd5b6115af88838901611532565b909650945060208701359150808211156115c857600080fd5b506115d587828801611532565b95989497509550505050565b6000806000606084860312156115f657600080fd5b83356001600160401b0381111561160c57600080fd5b8401610160818703121561161f57600080fd5b95602085013595506040909401359392505050565b6000806040838503121561164757600080fd5b82356116528161136c565b946020939093013593505050565b634e487b7160e01b600052604160045260246000fd5b600082601f83011261168757600080fd5b81356001600160401b03808211156116a1576116a1611660565b604051601f8301601f19908116603f011681019082821181831017156116c9576116c9611660565b816040528381528660208588010111156116e257600080fd5b836020870160208301376000602085830101528094505050505092915050565b6000806040838503121561171557600080fd5b82356117208161136c565b915060208301356001600160401b0381111561173b57600080fd5b61174785828601611676565b9150509250929050565b60005b8381101561176c578181015183820152602001611754565b50506000910152565b6000815180845261178d816020860160208601611751565b601f01601f19169290920160200192915050565b6020815260006107b16020830184611775565b6000602082840312156117c657600080fd5b5035919050565b600080602083850312156117e057600080fd5b82356001600160401b038111156117f657600080fd5b61180285828601611381565b90969095509350505050565b60008060006060848603121561182357600080fd5b833561182e8161136c565b925060208401356001600160401b0381111561184957600080fd5b61185586828701611676565b92505060408401356118668161136c565b809150509250925092565b6000806000806060858703121561188757600080fd5b84356118928161136c565b93506020850135925060408501356001600160401b038111156118b457600080fd5b6115d587828801611381565b60008060008060008060008060a0898b0312156118dc57600080fd5b88356118e78161136c565b975060208901356118f78161136c565b965060408901356001600160401b038082111561191357600080fd5b61191f8c838d01611532565b909850965060608b013591508082111561193857600080fd5b6119448c838d01611532565b909650945060808b013591508082111561145857600080fd5b60008060008060008060a0878903121561197657600080fd5b86356119818161136c565b955060208701356119918161136c565b9450604087013593506060870135925060808701356001600160401b038111156119ba57600080fd5b6119c689828a01611381565b979a9699509497509295939492505050565b634e487b7160e01b600052603260045260246000fd5b6000808335601e19843603018112611a0557600080fd5b8301803591506001600160401b03821115611a1f57600080fd5b6020019150368190038213156113c257600080fd5b8181038181111561059a57634e487b7160e01b600052601160045260246000fd5b600181811c90821680611a6957607f821691505b602082108103611a8957634e487b7160e01b600052602260045260246000fd5b50919050565b601f821115610984576000816000526020600020601f850160051c81016020861015611ab85750805b601f850160051c820191505b8181101561089057828155600101611ac4565b6001600160401b03831115611aee57611aee611660565b611b0283611afc8354611a55565b83611a8f565b6000601f841160018114611b365760008515611b1e5750838201355b600019600387901b1c1916600186901b1783556106b9565b600083815260209020601f19861690835b82811015611b675786850135825560209485019460019092019101611b47565b5086821015611b845760001960f88860031b161c19848701351681555b505060018560011b0183555050505050565b81516001600160401b03811115611baf57611baf611660565b611bc381611bbd8454611a55565b84611a8f565b602080601f831160018114611bf85760008415611be05750858301515b600019600386901b1c1916600185901b178555610890565b600085815260208120601f198616915b82811015611c2757888601518255948401946001909101908401611c08565b5085821015611c455787850151600019600388901b60f8161c191681555b5050505050600190811b01905550565b600060208284031215611c6757600080fd5b5051919050565b60008251611c80818460208701611751565b9190910192915050565b818382376000910190815291905056fe360894a13ba1a3210667c828492db98dca3e2076cc3735a920a3ca505d382bbca26469706673582212206aa63ddd267139d14c168ada2db4e3df9d6e1a7c6f3595b4ff19cbbb0623c7ac64736f6c63430008190033","linkReferences":{}},"methodIdentifiers":{"UPGRADE_INTERFACE_VERSION()":"ad3cb1cc","_entryPoint()":"b3080c24","addDeposit()":"4a58db19","entryPoint()":"b0d691fe","execute(address,uint256,bytes)":"b61d27f6","executeBatch(address[],bytes[])":"18dfb3c7","getDeposit()":"c399ec88","getNonce()":"d087d288","inherit()":"2b445d78","initialize(address)":"c4d66de8","initialize(address,bytes,address)":"abf90f7b","onERC1155BatchReceived(address,address,uint256[],uint256[],bytes)":"bc197c81","onERC1155Received(address,address,uint256,uint256,bytes)":"f23a6e61","onERC721Received(address,address,uint256,bytes)":"150b7a02","owner()":"8da5cb5b","proxiableUUID()":"52d1902d","publicKey()":"63ffab31","setInactiveTimeLimit(uint256)":"8c2ebc7c","setInheritor(address)":"12b22256","setPublicKey(bytes)":"a91d58b4","snarkVerifier()":"7a2a660b","supportsInterface(bytes4)":"01ffc9a7","tokensReceived(address,address,address,uint256,bytes,bytes)":"0023de29","upgradeToAndCall(address,bytes)":"4f1ef286","validateUserOp((address,uint256,bytes,bytes,uint256,uint256,uint256,uint256,uint256,bytes,bytes),bytes32,uint256)":"3a871cdd","verifier()":"2b7ac3f3","withdrawDepositTo(address,uint256)":"4d44560d"},"id":45}